:100000000C9475000C949D000C949D000C949D0024
:100010000C949D000C949D000C949D000C949D00EC
:100020000C949D000C949D000C949D000C949D00DC
:100030000C949D000C949D000C949D000C949D00CC
:100040000C94CB030C949D000C9408030C94350382
:100050000C949D000C949D000C949D000C949D00AC
:100060000C949D000C949D00084AD73B3BCE016E3A
:1000700084BCBFFDC12F3D6C74319ABD56833DDAFF
:100080003D00C77F11BED9E4BB4C3E916BAAAABE0E
:10009000000000803F000000000800020100000393
:1000A0000407000000000000000001020408102006
:1000B00040800102040810200102040810200404FA
:1000C0000404040404040202020202020303030300
:1000D000030300000000250028002B0000000000A2
:1000E000240027002A000A01650311241FBECFEF58
:1000F000D8E0DEBFCDBF11E0A0E0B1E0E4E4FEE077
:1001000002C005900D92A231B107D9F721E0A2E11A
:10011000B1E001C01D92A83EB207E1F710E0C5E7CB
:10012000D0E004C02197FE010E941A07C337D1070F
:10013000C9F70E94BC030C944E040C940000CF93AA
:10014000DF9326E040E855E260E070E082E491E071
:100150000E94A602CEE2D1E061E088810E9478018F
:1001600061E08A810E94780161E08C810E947801BF
:1001700061E08E810E94780161E08E81DF91CF91F4
:100180000C94B401CF92DF92EF92FF920F931F93E2
:10019000CF93DF93CCE3D1E08A810E9434018C01BC
:1001A00088810E943401EC01C8018150924004E62C
:1001B00010E0B8010E94D006072E000C880B990BA6
:1001C0000E94A4056B017C01F7FAF094F7F8F09413
:1001D000CE0181509240B8010E94D006072E000C3B
:1001E000880B990B0E94A4059058A70196010E94C4
:1001F000D1046093120170931301809314019093C2
:100200001501DF91CF911F910F91FF90EF90DF903B
:10021000CF900895ECE3F1E08EE090E0918380834D
:100220008FE090E09383828380E190E095838483E4
:10023000EEE2F1E01386128683E090E095838483FA
:1002400088E090E09183808389E090E093838283CB
:100250008AE090E09783868384E1E2E1F1E0DF01C8
:100260001D928A95E9F708958E3008F08E502091FE
:10027000000190E4299F900111248770822B8093C4
:100280007C0080917A00806480937A0080917A006B
:1002900086FDFCCF8091780090917900089583309D
:1002A00081F028F4813099F08230A9F008958730E8
:1002B000A9F08830C9F08430B1F4809180008F7D3E
:1002C00003C0809180008F7780938000089584B56B
:1002D0008F7784BD089584B58F7DFBCF8091B0006A
:1002E0008F778093B00008958091B0008F7DF9CF13
:1002F000CF93DF9390E0FC01E655FF4F24918254A9
:100300009F4FFC0184918823C9F090E0880F991FCA
:10031000FC01E452FF4FA591B491FC01EE52FF4F56
:10032000C591D49161110DC09FB7F8948C9120951F
:1003300082238C938881282328839FBFDF91CF91CC
:100340000895623051F49FB7F8943C91822F8095C4
:1003500083238C93E8812E2BEFCF8FB7F894EC9109
:100360002E2B2C938FBFEACF1F93CF93DF93162FA3
:10037000282F30E0F901EA56FF4F8491F901E65544
:10038000FF4FD491F901E254FF4FC491CC23A1F067
:1003900081110E944F01EC2FF0E0EE0FFF1FEE5293
:1003A000FF4FA591B4918FB7F894EC91111108C04B
:1003B000D095DE23DC938FBFDF91CF911F910895FD
:1003C000DE2BF8CFFC01918D228D892F90E0805C8F
:1003D0009F4F821B91098F7399270895FC01918D7E
:1003E000828D981731F0828DE80FF11D858D90E098
:1003F00008958FEF9FEF0895FC01918D828D9817DE
:1004000061F0A28DAE0FBF2FB11D5D968C91928DC4
:100410009F5F9F73928F90E008958FEF9FEF0895F5
:100420008BE593E0892B49F080E090E0892B29F05F
:100430000E945B0381110C9400000895FC01A48DBF
:10044000A80FB92FB11DA35ABF4F2C91848D90E0F6
:1004500001968F739927848FA689B7892C93A089D9
:10046000B1898C9180648C93938D848D981306C090
:100470000288F389E02D80818F7D80830895CF935A
:10048000DF93EC01888D8823B9F0AA89BB89E889BC
:10049000F9898C9185FD03C0808186FD0DC00FB662
:1004A00007FCF7CF8C9185FFF2CF808185FFEDCFE0
:1004B000CE010E941E02E9CFDF91CF910895EF9205
:1004C000FF920F931F93CF93DF93EC01F62E81E001
:1004D000888F9B8D8C8D981316C0E889F98980814F
:1004E00085FF11C0EE89FF896083E889F9898081E1
:1004F0008064808381E090E0DF91CF911F910F9124
:10050000FF90EF9008950B8D10E00F5F1F4F0F735A
:100510001127E02E8C8D8E110CC00FB607FCFACF80
:10052000E889F989808185FFF5CFCE010E941E02FE
:10053000F1CFEB8DEC0FFD2FF11DE35AFF4FF08251
:100540000B8FEA89FB8980818062D3CFCF92DF92C3
:10055000EF92FF921F93CF93DF93EC016A017B012F
:10056000122FE889F98982E08083C11481EED806D0
:10057000E104F104A1F060E079E08DE390E0A701EF
:1005800096010E94E406215031094109510956950E
:10059000479537952795211580E1380798F0E88928
:1005A000F989108260E874E88EE190E0A701960175
:1005B0000E94E40621503109410951095695479599
:1005C00037952795EC85FD853083EE85FF85208363
:1005D000188EEC89FD891083EA89FB89808180610E
:1005E0008083EA89FB89808188608083EA89FB892E
:1005F000808180688083EA89FB8980818F7D808308
:10060000DF91CF911F91FF90EF90DF90CF900895F1
:100610002F932FB72F938F939F93EF93FF93E09197
:100620005201F09153018081E0915801F0915901FC
:1006300082FD19C0908180915B018F5F8F73209143
:100640005C01821741F0E0915B01F0E0EE5BFE4F50
:10065000958F80935B01FF91EF919F918F912F91E7
:100660002FBF2F9118958081F6CF1F920F920FB652
:100670000F9211242F933F934F935F936F937F9328
:100680008F939F93AF93BF93EF93FF9382E491E097
:100690000E941E02FF91EF91BF91AF919F918F91A8
:1006A0007F916F915F914F913F912F910F900FBE6E
:1006B0000F901F90189582E491E00E94E20121E0E2
:1006C000892B09F420E0822F0895E2E4F1E01382FF
:1006D000128288EE93E0A0E0B0E084839583A68345
:1006E000B78385E091E09183808385EC90E09587E6
:1006F000848784EC90E09787868780EC90E0918BEC
:10070000808B81EC90E0938B828B82EC90E0958BD8
:10071000848B86EC90E0978B868B118E128E138ED5
:10072000148E0895CF92DF92EF92FF920F931F9352
:10073000CF93DF937C016A0110E000E00C151D05EA
:1007400081F0EB01D701ED91FC910190F081E02D5A
:100750006991C7010995892B21F00F5F1F4FBE01D9
:10076000EDCFC801DF91CF911F910F91FF90EF90D6
:10077000DF90CF90089508950E9413040E94BB0358
:100780000E949F00C0E1D2E00E94C2002097E1F3E6
:100790000E941002F9CF1F921FB61F9211242F93AF
:1007A0003F938F939F93AF93BF938091E00190917C
:1007B000E101A091E201B091E3013091DF0123E07A
:1007C000230F2D3750F50196A11DB11D2093DF0198
:1007D0008093E0019093E101A093E201B093E301E3
:1007E0008091E4019091E501A091E601B091E701CB
:1007F0000196A11DB11D8093E4019093E501A093A2
:10080000E601B093E701BF91AF919F918F913F9126
:100810002F911F901FBE1F90189526E8230F029658
:10082000A11DB11DD3CF789484B5826084BD84B5F9
:10083000816084BD85B5826085BD85B5816085BDDB
:10084000EEE6F0E0808181608083E1E8F0E01082F4
:10085000808182608083808181608083E0E8F0E035
:10086000808181608083E1EBF0E08081846080831F
:10087000E0EBF0E0808181608083EAE7F0E0808156
:1008800084608083808182608083808181608083B6
:100890008081806880831092C1000895F8940C9440
:1008A00020075058BB27AA270E9469040C941D06F4
:1008B0000E940F0638F00E94160620F039F49F3F80
:1008C00019F426F40C94E5050EF4E095E7FB0C947E
:1008D000DF05E92F0E942E0658F3BA176207730747
:1008E0008407950720F079F4A6F50C9450060EF4D1
:1008F000E0950B2EBA2FA02D0B01B90190010C0130
:10090000CA01A0011124FF27591B99F0593F50F447
:10091000503E68F11A16F040A22F232F342F44279F
:10092000585FF3CF469537952795A795F040539597
:10093000C9F77EF41F16BA0B620B730B840BBAF067
:100940009150A1F0FF0FBB1F661F771F881FC2F7D2
:100950000EC0BA0F621F731F841F48F487957795E6
:100960006795B795F7959E3F08F0B0CF9395880FA0
:1009700008F09927EE0F9795879508950E940F0626
:1009800060F080E891E009F49EEF0E94160628F0DE
:1009900040E851E071F45EEF0CC00C94E5050C9456
:1009A0005006E92FE0780E942E0640F3092E052A12
:1009B000B1F3261737074807590738F00E2E07F806
:1009C000E02569F0E025E0640AC0EF6307F80094D1
:1009D00007FADB01B9019D01DC01CA01AD01EF930A
:1009E0000E9447050E941D060E9401055F91552344
:1009F00039F02BED3FE049E450FD49EC0C945204F2
:100A00000895DF93DD27B92FBF7740E85FE316161F
:100A1000170648075B0718F4D92F0E9457069F93C3
:100A20008F937F936F930E94CC06E8E6F0E00E94DC
:100A3000E8050E941D062F913F914F915F910E9402
:100A40007206DD2351F09058A2EA2AED3FE049EC0E
:100A50005FE3D0785D270E946904DF910C941D0646
:100A60000E9444050C941D060E94160658F00E9430
:100A70000F0640F029F45F3F29F00C94DF05511177
:100A80000C9451060C94E5050E942E0668F39923F8
:100A9000B1F3552391F3951B550BBB27AA2762177A
:100AA0007307840738F09F5F5F4F220F331F441F87
:100AB000AA1FA9F335D00E2E3AF0E0E832D09150BB
:100AC0005040E695001CCAF72BD0FE2F29D0660FA8
:100AD000771F881FBB1F261737074807AB07B0E8EB
:100AE00009F0BB0B802DBF01FF2793585F4F3AF0F1
:100AF0009E3F510578F00C94DF050C9451065F3F42
:100B0000E4F3983ED4F3869577956795B795F79576
:100B10009F5FC9F7880F911D9695879597F908955E
:100B2000E1E0660F771F881FBB1F621773078407FA
:100B3000BA0720F0621B730B840BBA0BEE1F88F709
:100B4000E0950895E89409C097FB3EF49095809550
:100B5000709561957F4F8F4F9F4F9923A9F0F92F83
:100B600096E9BB279395F695879577956795B79501
:100B7000F111F8CFFAF4BB0F11F460FF1BC06F5FE7
:100B80007F4F8F4F9F4F16C0882311F096E911C0F9
:100B9000772321F09EE8872F762F05C0662371F01A
:100BA00096E8862F70E060E02AF09A95660F771F2E
:100BB000881FDAF7880F9695879597F9089597F922
:100BC0009F6780E870E060E008959FEF80EC0895F3
:100BD000DF93CF931F930F93FF92EF92DF927B01EE
:100BE0008C01689406C0DA2EEF010E947206FE01A5
:100BF000E894A5912591359145915591A6F3EF0182
:100C00000E946904FE019701A801DA9469F7DF9058
:100C1000EF90FF900F911F91CF91DF9108950024E5
:100C20000A941616170618060906089500240A9451
:100C300012161306140605060895092E0394000CD7
:100C400011F4882352F0BB0F40F4BF2B11F460FF66
:100C500004C06F5F7F4F8F4F9F4F089557FD90588F
:100C6000440F551F59F05F3F71F04795880F97FB70
:100C7000991F61F09F3F79F087950895121613062A
:100C80001406551FF2CF4695F1DF08C01616170659
:100C90001806991FF1CF869571056105089408958E
:100CA000E894BB2766277727CB0197F908959B0126
:100CB000AC0160E070E080E89FE30C9430050E9496
:100CC00072060C941D060E940F0638F00E9416064C
:100CD00020F0952311F00C94DF050C94E505112408
:100CE0000C9451060E942E0670F3959FC1F3950F48
:100CF00050E0551F629FF001729FBB27F00DB11DA0
:100D0000639FAA27F00DB11DAA1F649F6627B00D2F
:100D1000A11D661F829F2227B00DA11D621F739F18
:100D2000B00DA11D621F839FA00D611D221F749F26
:100D30003327A00D611D231F849F600D211D822F6D
:100D4000762F6A2F11249F5750409AF0F1F0882394
:100D50004AF0EE0FFF1FBB1F661F771F881F9150C1
:100D60005040A9F79E3F510580F00C94DF050C948C
:100D700051065F3FE4F3983ED4F3869577956795E7
:100D8000B795F795E7959F5FC1F7FE2B880F911DEB
:100D90009695879597F908959B01AC010C945F0691
:100DA00097FB072E16F4009407D077FD09D00E9418
:100DB000060707FC05D03EF4909581959F4F089556
:100DC000709561957F4F0895A1E21A2EAA1BBB1B57
:100DD000FD010DC0AA1FBB1FEE1FFF1FA217B30707
:100DE000E407F50720F0A21BB30BE40BF50B661F1D
:100DF000771F881F991F1A9469F7609570958095E1
:100E000090959B01AC01BD01CF010895AA1BBB1BAE
:100E100051E107C0AA1FBB1FA617B70710F0A61BFA
:100E2000B70B881F991F5A95A9F780959095BC011B
:100E3000CD010895EE0FFF1F0590F491E02D099468
:040E4000F894FFCF54
:100E440001000000005F029203E201FC01EE013F99
:020E540002009A
:00000001FF
