:100000000C945E000C9486000C9486000C94860080
:100010000C9486000C9486000C9486000C94860048
:100020000C9486000C9486000C9486000C94860038
:100030000C9486000C9486000C9486000C94860028
:100040000C94D2020C9486000C94DE010C940B02EA
:100050000C9486000C9486000C9486000C94860008
:100060000C9486000C948600000000080002010039
:100070000003040700000000000000000102040863
:100080001020408001020408102001020408102002
:10009000040404040404040402020202020203032E
:1000A0000303030300000000250028002B000000CC
:1000B0000000240027002A0096003B0211241FBEE6
:1000C000CFEFD8E0DEBFCDBF11E0A0E0B1E0EAE2C3
:1000D000F8E002C005900D92A031B107D9F721E0F8
:1000E000A0E1B1E001C01D92A63EB207E1F710E029
:1000F000CEE5D0E004C02197FE010E940D04CC356E
:10010000D107C9F70E9492020C94E8030C940000F6
:1001100026E040E855E260E070E080E491E00E9473
:100120007C018CE291E00C94B90208950F931F9327
:1001300020E130E04FE050E06EE070E08AE391E0D3
:100140000E94A1020AE010E029E030E048E050E01F
:1001500063E070E08CE291E00E94A90284E1E0E1BA
:10016000F1E0DF011D928A95E9F71F910F91089543
:10017000FC01918D228D892F90E0805C9F4F821B26
:1001800091098F7399270895FC01918D828D98179D
:1001900031F0828DE80FF11D858D90E008958FEF8D
:1001A0009FEF0895FC01918D828D981761F0A28DCB
:1001B000AE0FBF2FB11D5D968C91928D9F5F9F7387
:1001C000928F90E008958FEF9FEF089581E392E082
:1001D000892B49F080E090E0892B29F00E943102C0
:1001E00081110C9400000895FC01A48DA80FB92F73
:1001F000B11DA35ABF4F2C91848D90E001968F734F
:100200009927848FA689B7892C93A089B1898C916D
:1002100080648C93938D848D981306C00288F38933
:10022000E02D80818F7D80830895CF93DF93EC0153
:10023000888D8823B9F0AA89BB89E889F9898C91CE
:1002400085FD03C0808186FD0DC00FB607FCF7CF8A
:100250008C9185FFF2CF808185FFEDCFCE010E948A
:10026000F400E9CFDF91CF910895EF92FF920F93C1
:100270001F93CF93DF93EC01F62E81E0888F9B8D47
:100280008C8D981316C0E889F989808185FF11C08B
:10029000EE89FF896083E889F989808180648083A1
:1002A00081E090E0DF91CF911F910F91FF90EF904F
:1002B00008950B8D10E00F5F1F4F0F731127E02E75
:1002C0008C8D8E110CC00FB607FCFACFE889F98926
:1002D000808185FFF5CFCE010E94F400F1CFEB8D38
:1002E000EC0FFD2FF11DE35AFF4FF0820B8FEA89CF
:1002F000FB8980818062D3CFCF92DF92EF92FF9211
:100300001F93CF93DF93EC016A017B01122FE889E1
:10031000F98982E08083C11481EED806E104F104FA
:10032000A1F060E079E08DE390E0A70196010E94E2
:10033000EB032150310941095109569547953795ED
:100340002795211580E1380798F0E889F98910820E
:1003500060E874E88EE190E0A70196010E94EB034B
:1003600021503109410951095695479537952795EF
:10037000EC85FD853083EE85FF852083188EEC8922
:10038000FD891083EA89FB89808180618083EA8905
:10039000FB89808188608083EA89FB89808180680D
:1003A0008083EA89FB8980818F7D8083DF91CF9173
:1003B0001F91FF90EF90DF90CF9008952F932FB76C
:1003C0002F938F939F93EF93FF93E0915001F091C0
:1003D00051018081E0915601F091570182FD19C0D1
:1003E0009081809159018F5F8F7320915A018217FC
:1003F00041F0E0915901F0E0E05CFE4F958F809371
:100400005901FF91EF919F918F912F912FBF2F91C4
:1004100018958081F6CF1F920F920FB60F9211247C
:100420002F933F934F935F936F937F938F939F93FC
:10043000AF93BF93EF93FF9380E491E00E94F400A9
:10044000FF91EF91BF91AF919F918F917F916F91AC
:100450005F914F913F912F910F900FBE0F901F9082
:10046000189580E491E00E94B80021E0892B09F4FE
:1004700020E0822F0895E0E4F1E01382128288EEFA
:1004800093E0A0E0B0E084839583A683B78384E003
:1004900091E09183808385EC90E09587848784EC5C
:1004A00090E09787868780EC90E0918B808B81EC41
:1004B00090E0938B828B82EC90E0958B848B86EC22
:1004C00090E0978B868B118E128E138E148E08956A
:1004D000CF92DF92EF92FF920F931F93CF93DF9310
:1004E0007C016A0110E000E00C151D0581F0EB01B4
:1004F000D701ED91FC910190F081E02D6991C70148
:100500000995892B21F00F5F1F4FBE01EDCFC80168
:10051000DF91CF911F910F91FF90EF90DF90CF90DF
:10052000089508950E941A030E9491020E94880073
:10053000C6EED0E00E9495002097E1F30E94E6000D
:10054000F9CFFC0171836083538342833583248315
:1005500008950F931F93FC0113861286758364839D
:100560005183408333832283178306831F910F9126
:100570000895CF93DF93EC0161E088810E947E03B0
:1005800061E08A810E947E0361E08C810E947E038B
:1005900061E08E810E947E0361E08E81DF91CF91C8
:1005A0000C94BA031F921FB61F9211242F933F93EE
:1005B0008F939F93AF93BF938091DE019091DF0162
:1005C000A091E001B091E1013091DD0123E0230F22
:1005D0002D3750F50196A11DB11D2093DD018093AB
:1005E000DE019093DF01A093E001B093E1018091DF
:1005F000E2019091E301A091E401B091E50101963F
:10060000A11DB11D8093E2019093E301A093E40149
:10061000B093E501BF91AF919F918F913F912F9141
:100620001F901FBE1F90189526E8230F0296A11D4C
:10063000B11DD3CF789484B5826084BD84B58160C8
:1006400084BD85B5826085BD85B5816085BDEEE6DA
:10065000F0E0808181608083E1E8F0E010828081B9
:1006600082608083808181608083E0E8F0E0808127
:1006700081608083E1EBF0E0808184608083E0EB47
:10068000F0E0808181608083EAE7F0E0808184602F
:10069000808380818260808380818160808380818B
:1006A000806880831092C1000895833081F028F41F
:1006B000813099F08230A9F008958730A9F0883010
:1006C000C9F08430B1F4809180008F7D03C08091A7
:1006D00080008F7780938000089584B58F7784BDE4
:1006E000089584B58F7DFBCF8091B0008F77809384
:1006F000B00008958091B0008F7DF9CFCF93DF9344
:1007000090E0FC01E458FF4F249180579F4FFC017B
:1007100084918823C9F090E0880F991FFC01E2556D
:10072000FF4FA591B491FC01EC55FF4FC591D491B9
:1007300061110DC09FB7F8948C91209582238C9302
:100740008881282328839FBFDF91CF91089562304D
:1007500051F49FB7F8943C91822F809583238C931A
:10076000E8812E2BEFCF8FB7F894EC912E2B2C93A2
:100770008FBFEACF1F93CF93DF93162F282F30E040
:10078000F901E859FF4F8491F901E458FF4FD491E2
:10079000F901E057FF4FC491CC23A1F081110E94D1
:1007A0005503EC2FF0E0EE0FFF1FEC55FF4FA59126
:1007B000B4918FB7F894EC91111108C0D095DE2355
:1007C000DC938FBFDF91CF911F910895DE2BF8CF7F
:1007D000F8940C941304A1E21A2EAA1BBB1BFD0172
:1007E0000DC0AA1FBB1FEE1FFF1FA217B307E40710
:1007F000F50720F0A21BB30BE40BF50B661F771F68
:10080000881F991F1A9469F7609570958095909547
:100810009B01AC01BD01CF010895EE0FFF1F0590B4
:0A082000F491E02D0994F894FFCF45
:10082A000000000035016802B800D200C4001501BA
:00000001FF
